{
  "_format": "hh-sol-artifact-1",
  "contractName": "MyEpicNFT",
  "sourceName": "contracts/MyEpicNFT.sol",
  "abi": [
    {
      "inputs": [],
      "stateMutability": "nonpayable",
      "type": "constructor"
    },
    {
      "anonymous": false,
      "inputs": [
        {
          "indexed": true,
          "internalType": "address",
          "name": "owner",
          "type": "address"
        },
        {
          "indexed": true,
          "internalType": "address",
          "name": "approved",
          "type": "address"
        },
        {
          "indexed": true,
          "internalType": "uint256",
          "name": "tokenId",
          "type": "uint256"
        }
      ],
      "name": "Approval",
      "type": "event"
    },
    {
      "anonymous": false,
      "inputs": [
        {
          "indexed": true,
          "internalType": "address",
          "name": "owner",
          "type": "address"
        },
        {
          "indexed": true,
          "internalType": "address",
          "name": "operator",
          "type": "address"
        },
        {
          "indexed": false,
          "internalType": "bool",
          "name": "approved",
          "type": "bool"
        }
      ],
      "name": "ApprovalForAll",
      "type": "event"
    },
    {
      "anonymous": false,
      "inputs": [
        {
          "indexed": true,
          "internalType": "uint256",
          "name": "tokenId",
          "type": "uint256"
        },
        {
          "indexed": false,
          "internalType": "string",
          "name": "image",
          "type": "string"
        }
      ],
      "name": "Minted",
      "type": "event"
    },
    {
      "anonymous": false,
      "inputs": [
        {
          "indexed": true,
          "internalType": "address",
          "name": "from",
          "type": "address"
        },
        {
          "indexed": true,
          "internalType": "address",
          "name": "to",
          "type": "address"
        },
        {
          "indexed": true,
          "internalType": "uint256",
          "name": "tokenId",
          "type": "uint256"
        }
      ],
      "name": "Transfer",
      "type": "event"
    },
    {
      "inputs": [
        {
          "internalType": "address",
          "name": "to",
          "type": "address"
        },
        {
          "internalType": "uint256",
          "name": "tokenId",
          "type": "uint256"
        }
      ],
      "name": "approve",
      "outputs": [],
      "stateMutability": "nonpayable",
      "type": "function"
    },
    {
      "inputs": [
        {
          "internalType": "address",
          "name": "owner",
          "type": "address"
        }
      ],
      "name": "balanceOf",
      "outputs": [
        {
          "internalType": "uint256",
          "name": "",
          "type": "uint256"
        }
      ],
      "stateMutability": "view",
      "type": "function"
    },
    {
      "inputs": [
        {
          "internalType": "uint256",
          "name": "tokenId",
          "type": "uint256"
        }
      ],
      "name": "getApproved",
      "outputs": [
        {
          "internalType": "address",
          "name": "",
          "type": "address"
        }
      ],
      "stateMutability": "view",
      "type": "function"
    },
    {
      "inputs": [],
      "name": "getTotalNFTs",
      "outputs": [
        {
          "internalType": "uint256",
          "name": "",
          "type": "uint256"
        }
      ],
      "stateMutability": "view",
      "type": "function"
    },
    {
      "inputs": [
        {
          "internalType": "address",
          "name": "owner",
          "type": "address"
        },
        {
          "internalType": "address",
          "name": "operator",
          "type": "address"
        }
      ],
      "name": "isApprovedForAll",
      "outputs": [
        {
          "internalType": "bool",
          "name": "",
          "type": "bool"
        }
      ],
      "stateMutability": "view",
      "type": "function"
    },
    {
      "inputs": [],
      "name": "makeAnEpicNFT",
      "outputs": [],
      "stateMutability": "nonpayable",
      "type": "function"
    },
    {
      "inputs": [],
      "name": "name",
      "outputs": [
        {
          "internalType": "string",
          "name": "",
          "type": "string"
        }
      ],
      "stateMutability": "view",
      "type": "function"
    },
    {
      "inputs": [
        {
          "internalType": "uint256",
          "name": "tokenId",
          "type": "uint256"
        }
      ],
      "name": "ownerOf",
      "outputs": [
        {
          "internalType": "address",
          "name": "",
          "type": "address"
        }
      ],
      "stateMutability": "view",
      "type": "function"
    },
    {
      "inputs": [
        {
          "internalType": "uint256",
          "name": "tokenId",
          "type": "uint256"
        }
      ],
      "name": "pickRandomFirstWord",
      "outputs": [
        {
          "internalType": "string",
          "name": "",
          "type": "string"
        }
      ],
      "stateMutability": "view",
      "type": "function"
    },
    {
      "inputs": [
        {
          "internalType": "uint256",
          "name": "tokenId",
          "type": "uint256"
        }
      ],
      "name": "pickRandomSecondWord",
      "outputs": [
        {
          "internalType": "string",
          "name": "",
          "type": "string"
        }
      ],
      "stateMutability": "view",
      "type": "function"
    },
    {
      "inputs": [
        {
          "internalType": "uint256",
          "name": "tokenId",
          "type": "uint256"
        }
      ],
      "name": "pickRandomThirdWord",
      "outputs": [
        {
          "internalType": "string",
          "name": "",
          "type": "string"
        }
      ],
      "stateMutability": "view",
      "type": "function"
    },
    {
      "inputs": [
        {
          "internalType": "address",
          "name": "from",
          "type": "address"
        },
        {
          "internalType": "address",
          "name": "to",
          "type": "address"
        },
        {
          "internalType": "uint256",
          "name": "tokenId",
          "type": "uint256"
        }
      ],
      "name": "safeTransferFrom",
      "outputs": [],
      "stateMutability": "nonpayable",
      "type": "function"
    },
    {
      "inputs": [
        {
          "internalType": "address",
          "name": "from",
          "type": "address"
        },
        {
          "internalType": "address",
          "name": "to",
          "type": "address"
        },
        {
          "internalType": "uint256",
          "name": "tokenId",
          "type": "uint256"
        },
        {
          "internalType": "bytes",
          "name": "_data",
          "type": "bytes"
        }
      ],
      "name": "safeTransferFrom",
      "outputs": [],
      "stateMutability": "nonpayable",
      "type": "function"
    },
    {
      "inputs": [
        {
          "internalType": "address",
          "name": "operator",
          "type": "address"
        },
        {
          "internalType": "bool",
          "name": "approved",
          "type": "bool"
        }
      ],
      "name": "setApprovalForAll",
      "outputs": [],
      "stateMutability": "nonpayable",
      "type": "function"
    },
    {
      "inputs": [
        {
          "internalType": "bytes4",
          "name": "interfaceId",
          "type": "bytes4"
        }
      ],
      "name": "supportsInterface",
      "outputs": [
        {
          "internalType": "bool",
          "name": "",
          "type": "bool"
        }
      ],
      "stateMutability": "view",
      "type": "function"
    },
    {
      "inputs": [],
      "name": "symbol",
      "outputs": [
        {
          "internalType": "string",
          "name": "",
          "type": "string"
        }
      ],
      "stateMutability": "view",
      "type": "function"
    },
    {
      "inputs": [
        {
          "internalType": "uint256",
          "name": "tokenId",
          "type": "uint256"
        }
      ],
      "name": "tokenURI",
      "outputs": [
        {
          "internalType": "string",
          "name": "",
          "type": "string"
        }
      ],
      "stateMutability": "view",
      "type": "function"
    },
    {
      "inputs": [
        {
          "internalType": "address",
          "name": "from",
          "type": "address"
        },
        {
          "internalType": "address",
          "name": "to",
          "type": "address"
        },
        {
          "internalType": "uint256",
          "name": "tokenId",
          "type": "uint256"
        }
      ],
      "name": "transferFrom",
      "outputs": [],
      "stateMutability": "nonpayable",
      "type": "function"
    }
  ],
  "bytecode": "0x608060405260405180610160016040528061012f81526020016200413a61012f913960089080519060200190620000389291906200067e565b506040518060c001604052806040518060400160405280600981526020017f416d7374657264616d000000000000000000000000000000000000000000000081525081526020016040518060400160405280600381526020017f45444d000000000000000000000000000000000000000000000000000000000081525081526020016040518060400160405280600681526020017f507974686f6e000000000000000000000000000000000000000000000000000081525081526020016040518060400160405280600881526020017f457468657265756d00000000000000000000000000000000000000000000000081525081526020016040518060400160405280600881526020017f4d6564656c6c696e00000000000000000000000000000000000000000000000081525081526020016040518060400160405280600581526020017f466c6163610000000000000000000000000000000000000000000000000000008152508152506009906006620001b69291906200070f565b506040518060c001604052806040518060400160405280600781526020017f417765736f6d650000000000000000000000000000000000000000000000000081525081526020016040518060400160405280600481526020017f57474d490000000000000000000000000000000000000000000000000000000081525081526020016040518060400160405280600881526020017f536f6c696469747900000000000000000000000000000000000000000000000081525081526020016040518060400160405280600681526020017f4272617a696c000000000000000000000000000000000000000000000000000081525081526020016040518060400160405280600581526020017f536d61727400000000000000000000000000000000000000000000000000000081525081526020016040518060400160405280600581526020017f4e6f6d6164000000000000000000000000000000000000000000000000000000815250815250600a906006620003349291906200070f565b506040518060c001604052806040518060400160405280600781526020017f46726565646f6d0000000000000000000000000000000000000000000000000081525081526020016040518060400160405280600981526020017f4368616c6c656e6765000000000000000000000000000000000000000000000081525081526020016040518060400160405280600581526020017f506172697300000000000000000000000000000000000000000000000000000081525081526020016040518060400160405280600581526020017f4170706c6500000000000000000000000000000000000000000000000000000081525081526020016040518060400160405280600a81526020017f496e766573746d656e740000000000000000000000000000000000000000000081525081526020016040518060400160405280600581526020017f426f6f7468000000000000000000000000000000000000000000000000000000815250815250600b906006620004b29291906200070f565b50348015620004c057600080fd5b506040518060400160405280600881526020017f426f6f74684e46540000000000000000000000000000000000000000000000008152506040518060400160405280600581526020017f424f4f54480000000000000000000000000000000000000000000000000000008152508160009080519060200190620005459291906200067e565b5080600190805190602001906200055e9291906200067e565b505050620005ac6040518060400160405280601e81526020017f54686973206973206d79204e465420636f6e74726163742e2057686f61210000815250620005b260201b620010771760201c565b62000930565b6200065281604051602401620005c9919062000844565b6040516020818303038152906040527f41304fac000000000000000000000000000000000000000000000000000000007bffffffffffffffffffffffffffffffffffffffffffffffffffffffff19166020820180517bffffffffffffffffffffffffffffffffffffffffffffffffffffffff83818316178352505050506200065560201b60201c565b50565b60008151905060006a636f6e736f6c652e6c6f679050602083016000808483855afa5050505050565b8280546200068c90620008ba565b90600052602060002090601f016020900481019282620006b05760008555620006fc565b82601f10620006cb57805160ff1916838001178555620006fc565b82800160010185558215620006fc579182015b82811115620006fb578251825591602001919060010190620006de565b5b5090506200070b919062000776565b5090565b82805482825590600052602060002090810192821562000763579160200282015b8281111562000762578251829080519060200190620007519291906200067e565b509160200191906001019062000730565b5b50905062000772919062000795565b5090565b5b808211156200079157600081600090555060010162000777565b5090565b5b80821115620007b95760008181620007af9190620007bd565b5060010162000796565b5090565b508054620007cb90620008ba565b6000825580601f10620007df575062000800565b601f016020900490600052602060002090810190620007ff919062000776565b5b50565b6000620008108262000868565b6200081c818562000873565b93506200082e81856020860162000884565b62000839816200091f565b840191505092915050565b6000602082019050818103600083015262000860818462000803565b905092915050565b600081519050919050565b600082825260208201905092915050565b60005b83811015620008a457808201518184015260208101905062000887565b83811115620008b4576000848401525b50505050565b60006002820490506001821680620008d357607f821691505b60208210811415620008ea57620008e9620008f0565b5b50919050565b7f4e487b7100000000000000000000000000000000000000000000000000000000600052602260045260246000fd5b6000601f19601f8301169050919050565b6137fa80620009406000396000f3fe608060405234801561001057600080fd5b50600436106101165760003560e01c806370a08231116100a2578063b88d4fde11610071578063b88d4fde14610305578063c575757a14610321578063c87b56dd14610351578063de9d132f14610381578063e985e9c51461038b57610116565b806370a082311461026b57806395d89b411461029b578063a22cb465146102b9578063b187301f146102d557610116565b806323b872dd116100e957806323b872dd146101b55780632de38d68146101d157806330bdb3511461020157806342842e0e1461021f5780636352211e1461023b57610116565b806301ffc9a71461011b57806306fdde031461014b578063081812fc14610169578063095ea7b314610199575b600080fd5b61013560048036038101906101309190612477565b6103bb565b6040516101429190613070565b60405180910390f35b61015361049d565b604051610160919061308b565b60405180910390f35b610183600480360381019061017e91906124c9565b61052f565b6040516101909190613009565b60405180910390f35b6101b360048036038101906101ae919061243b565b6105b4565b005b6101cf60048036038101906101ca9190612335565b6106cc565b005b6101eb60048036038101906101e691906124c9565b61072c565b6040516101f8919061308b565b60405180910390f35b61020961084a565b60405161021691906132eb565b60405180910390f35b61023960048036038101906102349190612335565b610860565b005b610255600480360381019061025091906124c9565b610880565b6040516102629190613009565b60405180910390f35b610285600480360381019061028091906122d0565b610932565b60405161029291906132eb565b60405180910390f35b6102a36109ea565b6040516102b0919061308b565b60405180910390f35b6102d360048036038101906102ce91906123ff565b610a7c565b005b6102ef60048036038101906102ea91906124c9565b610a92565b6040516102fc919061308b565b60405180910390f35b61031f600480360381019061031a9190612384565b610bb0565b005b61033b600480360381019061033691906124c9565b610c12565b604051610348919061308b565b60405180910390f35b61036b600480360381019061036691906124c9565b610d30565b604051610378919061308b565b60405180910390f35b610389610e82565b005b6103a560048036038101906103a091906122f9565b610fe3565b6040516103b29190613070565b60405180910390f35b60007f80ac58cd000000000000000000000000000000000000000000000000000000007bffffffffffffffffffffffffffffffffffffffffffffffffffffffff1916827bffffffffffffffffffffffffffffffffffffffffffffffffffffffff1916148061048657507f5b5e139f000000000000000000000000000000000000000000000000000000007bffffffffffffffffffffffffffffffffffffffffffffffffffffffff1916827bffffffffffffffffffffffffffffffffffffffffffffffffffffffff1916145b80610496575061049582611110565b5b9050919050565b6060600080546104ac9061358a565b80601f01602080910402602001604051908101604052809291908181526020018280546104d89061358a565b80156105255780601f106104fa57610100808354040283529160200191610525565b820191906000526020600020905b81548152906001019060200180831161050857829003601f168201915b5050505050905090565b600061053a8261117a565b610579576040517f08c379a00000000000000000000000000000000000000000000000000000000081526004016105709061324b565b60405180910390fd5b6004600083815260200190815260200160002060009054906101000a900473ffffffffffffffffffffffffffffffffffffffff169050919050565b60006105bf82610880565b90508073ffffffffffffffffffffffffffffffffffffffff168373ffffffffffffffffffffffffffffffffffffffff161415610630576040517f08c379a0000000000000000000000000000000000000000000000000000000008152600401610627906132ab565b60405180910390fd5b8073ffffffffffffffffffffffffffffffffffffffff1661064f6111e6565b73ffffffffffffffffffffffffffffffffffffffff16148061067e575061067d816106786111e6565b610fe3565b5b6106bd576040517f08c379a00000000000000000000000000000000000000000000000000000000081526004016106b49061318b565b60405180910390fd5b6106c783836111ee565b505050565b6106dd6106d76111e6565b826112a7565b61071c576040517f08c379a0000000000000000000000000000000000000000000000000000000008152600401610713906132cb565b60405180910390fd5b610727838383611385565b505050565b6060600061076061073c846115e1565b60405160200161074c9190612fc5565b60405160208183030381529060405261178e565b9050600980549050816107739190613605565b9050600981815481106107af577f4e487b7100000000000000000000000000000000000000000000000000000000600052603260045260246000fd5b9060005260206000200180546107c49061358a565b80601f01602080910402602001604051908101604052809291908181526020018280546107f09061358a565b801561083d5780601f106108125761010080835404028352916020019161083d565b820191906000526020600020905b81548152906001019060200180831161082057829003601f168201915b5050505050915050919050565b60008061085760076117c1565b90508091505090565b61087b83838360405180602001604052806000815250610bb0565b505050565b6000806002600084815260200190815260200160002060009054906101000a900473ffffffffffffffffffffffffffffffffffffffff169050600073ffffffffffffffffffffffffffffffffffffffff168173ffffffffffffffffffffffffffffffffffffffff161415610929576040517f08c379a0000000000000000000000000000000000000000000000000000000008152600401610920906131cb565b60405180910390fd5b80915050919050565b60008073ffffffffffffffffffffffffffffffffffffffff168273ffffffffffffffffffffffffffffffffffffffff1614156109a3576040517f08c379a000000000000000000000000000000000000000000000000000000000815260040161099a906131ab565b60405180910390fd5b600360008373ffffffffffffffffffffffffffffffffffffffff1673ffffffffffffffffffffffffffffffffffffffff168152602001908152602001600020549050919050565b6060600180546109f99061358a565b80601f0160208091040260200160405190810160405280929190818152602001828054610a259061358a565b8015610a725780601f10610a4757610100808354040283529160200191610a72565b820191906000526020600020905b815481529060010190602001808311610a5557829003601f168201915b5050505050905090565b610a8e610a876111e6565b83836117cf565b5050565b60606000610ac6610aa2846115e1565b604051602001610ab29190612f5e565b60405160208183030381529060405261178e565b9050600a8054905081610ad99190613605565b9050600a8181548110610b15577f4e487b7100000000000000000000000000000000000000000000000000000000600052603260045260246000fd5b906000526020600020018054610b2a9061358a565b80601f0160208091040260200160405190810160405280929190818152602001828054610b569061358a565b8015610ba35780601f10610b7857610100808354040283529160200191610ba3565b820191906000526020600020905b815481529060010190602001808311610b8657829003601f168201915b5050505050915050919050565b610bc1610bbb6111e6565b836112a7565b610c00576040517f08c379a0000000000000000000000000000000000000000000000000000000008152600401610bf7906132cb565b60405180910390fd5b610c0c8484848461193c565b50505050565b60606000610c46610c22846115e1565b604051602001610c329190612f3c565b60405160208183030381529060405261178e565b9050600b8054905081610c599190613605565b9050600b8181548110610c95577f4e487b7100000000000000000000000000000000000000000000000000000000600052603260045260246000fd5b906000526020600020018054610caa9061358a565b80601f0160208091040260200160405190810160405280929190818152602001828054610cd69061358a565b8015610d235780601f10610cf857610100808354040283529160200191610d23565b820191906000526020600020905b815481529060010190602001808311610d0657829003601f168201915b5050505050915050919050565b6060610d3b8261117a565b610d7a576040517f08c379a0000000000000000000000000000000000000000000000000000000008152600401610d719061322b565b60405180910390fd5b6000600660008481526020019081526020016000208054610d9a9061358a565b80601f0160208091040260200160405190810160405280929190818152602001828054610dc69061358a565b8015610e135780601f10610de857610100808354040283529160200191610e13565b820191906000526020600020905b815481529060010190602001808311610df657829003601f168201915b505050505090506000610e24611998565b9050600081511415610e3a578192505050610e7d565b600082511115610e6f578082604051602001610e57929190612eb8565b60405160208183030381529060405292505050610e7d565b610e78846119af565b925050505b919050565b6000610e8e60076117c1565b90506000610e9b8261072c565b90506000610ea883610a92565b90506000610eb584610c12565b90506000838383604051602001610ece93929190612edc565b60405160208183030381529060405290506000600882604051602001610ef5929190612f0d565b60405160208183030381529060405290506000610f3a83610f1584611a56565b604051602001610f26929190612f80565b604051602081830303815290604052611a56565b9050600081604051602001610f4f9190612fe7565b6040516020818303038152906040529050610f6a3389611c14565b610f748882611c32565b610f7e6007611ca6565b610fa1604051806060016040528060258152602001613760602591398933611cbc565b877fadef11a3979b8ceb0573eb6ef0678134a09c23a0d94e5ea47cd18ac3a9fc019482604051610fd1919061308b565b60405180910390a25050505050505050565b6000600560008473ffffffffffffffffffffffffffffffffffffffff1673ffffffffffffffffffffffffffffffffffffffff16815260200190815260200160002060008373ffffffffffffffffffffffffffffffffffffffff1673ffffffffffffffffffffffffffffffffffffffff16815260200190815260200160002060009054906101000a900460ff16905092915050565b61110d8160405160240161108b919061308b565b6040516020818303038152906040527f41304fac000000000000000000000000000000000000000000000000000000007bffffffffffffffffffffffffffffffffffffffffffffffffffffffff19166020820180517bffffffffffffffffffffffffffffffffffffffffffffffffffffffff8381831617835250505050611d5b565b50565b60007f01ffc9a7000000000000000000000000000000000000000000000000000000007bffffffffffffffffffffffffffffffffffffffffffffffffffffffff1916827bffffffffffffffffffffffffffffffffffffffffffffffffffffffff1916149050919050565b60008073ffffffffffffffffffffffffffffffffffffffff166002600084815260200190815260200160002060009054906101000a900473ffffffffffffffffffffffffffffffffffffffff1673ffffffffffffffffffffffffffffffffffffffff1614159050919050565b600033905090565b816004600083815260200190815260200160002060006101000a81548173ffffffffffffffffffffffffffffffffffffffff021916908373ffffffffffffffffffffffffffffffffffffffff160217905550808273ffffffffffffffffffffffffffffffffffffffff1661126183610880565b73ffffffffffffffffffffffffffffffffffffffff167f8c5be1e5ebec7d5bd14f71427d1e84f3dd0314c0f7b2291e5b200ac8c7c3b92560405160405180910390a45050565b60006112b28261117a565b6112f1576040517f08c379a00000000000000000000000000000000000000000000000000000000081526004016112e89061316b565b60405180910390fd5b60006112fc83610880565b90508073ffffffffffffffffffffffffffffffffffffffff168473ffffffffffffffffffffffffffffffffffffffff16148061136b57508373ffffffffffffffffffffffffffffffffffffffff166113538461052f565b73ffffffffffffffffffffffffffffffffffffffff16145b8061137c575061137b8185610fe3565b5b91505092915050565b8273ffffffffffffffffffffffffffffffffffffffff166113a582610880565b73ffffffffffffffffffffffffffffffffffffffff16146113fb576040517f08c379a00000000000000000000000000000000000000000000000000000000081526004016113f29061326b565b60405180910390fd5b600073ffffffffffffffffffffffffffffffffffffffff168273ffffffffffffffffffffffffffffffffffffffff16141561146b576040517f08c379a00000000000000000000000000000000000000000000000000000000081526004016114629061312b565b60405180910390fd5b611476838383611d84565b6114816000826111ee565b6001600360008573ffffffffffffffffffffffffffffffffffffffff1673ffffffffffffffffffffffffffffffffffffffff16815260200190815260200160002060008282546114d191906134a0565b925050819055506001600360008473ffffffffffffffffffffffffffffffffffffffff1673ffffffffffffffffffffffffffffffffffffffff168152602001908152602001600020600082825461152891906133bf565b92505081905550816002600083815260200190815260200160002060006101000a81548173ffffffffffffffffffffffffffffffffffffffff021916908373ffffffffffffffffffffffffffffffffffffffff160217905550808273ffffffffffffffffffffffffffffffffffffffff168473ffffffffffffffffffffffffffffffffffffffff167fddf252ad1be2c89b69c2b068fc378daa952ba7f163c4a11628f55a4df523b3ef60405160405180910390a4505050565b60606000821415611629576040518060400160405280600181526020017f30000000000000000000000000000000000000000000000000000000000000008152509050611789565b600082905060005b6000821461165b578080611644906135bc565b915050600a826116549190613415565b9150611631565b60008167ffffffffffffffff81111561169d577f4e487b7100000000000000000000000000000000000000000000000000000000600052604160045260246000fd5b6040519080825280601f01601f1916602001820160405280156116cf5781602001600182028036833780820191505090505b5090505b60008514611782576001826116e891906134a0565b9150600a856116f79190613605565b603061170391906133bf565b60f81b81838151811061173f577f4e487b7100000000000000000000000000000000000000000000000000000000600052603260045260246000fd5b60200101907effffffffffffffffffffffffffffffffffffffffffffffffffffffffffffff1916908160001a905350600a8561177b9190613415565b94506116d3565b8093505050505b919050565b6000816040516020016117a19190612ea1565b6040516020818303038152906040528051906020012060001c9050919050565b600081600001549050919050565b8173ffffffffffffffffffffffffffffffffffffffff168373ffffffffffffffffffffffffffffffffffffffff16141561183e576040517f08c379a00000000000000000000000000000000000000000000000000000000081526004016118359061314b565b60405180910390fd5b80600560008573ffffffffffffffffffffffffffffffffffffffff1673ffffffffffffffffffffffffffffffffffffffff16815260200190815260200160002060008473ffffffffffffffffffffffffffffffffffffffff1673ffffffffffffffffffffffffffffffffffffffff16815260200190815260200160002060006101000a81548160ff0219169083151502179055508173ffffffffffffffffffffffffffffffffffffffff168373ffffffffffffffffffffffffffffffffffffffff167f17307eab39ab6107e8899845ad3d59bd9653f200f220920489ca2b5937696c318360405161192f9190613070565b60405180910390a3505050565b611947848484611385565b61195384848484611d89565b611992576040517f08c379a0000000000000000000000000000000000000000000000000000000008152600401611989906130eb565b60405180910390fd5b50505050565b606060405180602001604052806000815250905090565b60606119ba8261117a565b6119f9576040517f08c379a00000000000000000000000000000000000000000000000000000000081526004016119f09061328b565b60405180910390fd5b6000611a03611998565b90506000815111611a235760405180602001604052806000815250611a4e565b80611a2d846115e1565b604051602001611a3e929190612eb8565b6040516020818303038152906040525b915050919050565b60606000825190506000811415611a7f5760405180602001604052806000815250915050611c0f565b60006003600283611a9091906133bf565b611a9a9190613415565b6004611aa69190613446565b90506000602082611ab791906133bf565b67ffffffffffffffff811115611af6577f4e487b7100000000000000000000000000000000000000000000000000000000600052604160045260246000fd5b6040519080825280601f01601f191660200182016040528015611b285781602001600182028036833780820191505090505b5090506000604051806060016040528060408152602001613785604091399050600181016020830160005b86811015611bcc5760038101905062ffffff818a015116603f8160121c168401518060081b905060ff603f83600c1c1686015116810190508060081b905060ff603f8360061c1686015116810190508060081b905060ff603f831686015116810190508060e01b90508084526004840193505050611b53565b506003860660018114611be65760028114611bf657611c01565b613d3d60f01b6002830352611c01565b603d60f81b60018303525b508484525050819450505050505b919050565b611c2e828260405180602001604052806000815250611f20565b5050565b611c3b8261117a565b611c7a576040517f08c379a0000000000000000000000000000000000000000000000000000000008152600401611c71906131eb565b60405180910390fd5b80600660008481526020019081526020016000209080519060200190611ca192919061215c565b505050565b6001816000016000828254019250508190555050565b611d56838383604051602401611cd4939291906130ad565b6040516020818303038152906040527fe3849f79000000000000000000000000000000000000000000000000000000007bffffffffffffffffffffffffffffffffffffffffffffffffffffffff19166020820180517bffffffffffffffffffffffffffffffffffffffffffffffffffffffff8381831617835250505050611d5b565b505050565b60008151905060006a636f6e736f6c652e6c6f679050602083016000808483855afa5050505050565b505050565b6000611daa8473ffffffffffffffffffffffffffffffffffffffff16611f7b565b15611f13578373ffffffffffffffffffffffffffffffffffffffff1663150b7a02611dd36111e6565b8786866040518563ffffffff1660e01b8152600401611df59493929190613024565b602060405180830381600087803b158015611e0f57600080fd5b505af1925050508015611e4057506040513d601f19601f82011682018060405250810190611e3d91906124a0565b60015b611ec3573d8060008114611e70576040519150601f19603f3d011682016040523d82523d6000602084013e611e75565b606091505b50600081511415611ebb576040517f08c379a0000000000000000000000000000000000000000000000000000000008152600401611eb2906130eb565b60405180910390fd5b805181602001fd5b63150b7a0260e01b7bffffffffffffffffffffffffffffffffffffffffffffffffffffffff1916817bffffffffffffffffffffffffffffffffffffffffffffffffffffffff191614915050611f18565b600190505b949350505050565b611f2a8383611f8e565b611f376000848484611d89565b611f76576040517f08c379a0000000000000000000000000000000000000000000000000000000008152600401611f6d906130eb565b60405180910390fd5b505050565b600080823b905060008111915050919050565b600073ffffffffffffffffffffffffffffffffffffffff168273ffffffffffffffffffffffffffffffffffffffff161415611ffe576040517f08c379a0000000000000000000000000000000000000000000000000000000008152600401611ff59061320b565b60405180910390fd5b6120078161117a565b15612047576040517f08c379a000000000000000000000000000000000000000000000000000000000815260040161203e9061310b565b60405180910390fd5b61205360008383611d84565b6001600360008473ffffffffffffffffffffffffffffffffffffffff1673ffffffffffffffffffffffffffffffffffffffff16815260200190815260200160002060008282546120a391906133bf565b92505081905550816002600083815260200190815260200160002060006101000a81548173ffffffffffffffffffffffffffffffffffffffff021916908373ffffffffffffffffffffffffffffffffffffffff160217905550808273ffffffffffffffffffffffffffffffffffffffff16600073ffffffffffffffffffffffffffffffffffffffff167fddf252ad1be2c89b69c2b068fc378daa952ba7f163c4a11628f55a4df523b3ef60405160405180910390a45050565b8280546121689061358a565b90600052602060002090601f01602090048101928261218a57600085556121d1565b82601f106121a357805160ff19168380011785556121d1565b828001600101855582156121d1579182015b828111156121d05782518255916020019190600101906121b5565b5b5090506121de91906121e2565b5090565b5b808211156121fb5760008160009055506001016121e3565b5090565b600061221261220d84613337565b613306565b90508281526020810184848401111561222a57600080fd5b612235848285613548565b509392505050565b60008135905061224c81613703565b92915050565b6000813590506122618161371a565b92915050565b60008135905061227681613731565b92915050565b60008151905061228b81613731565b92915050565b600082601f8301126122a257600080fd5b81356122b28482602086016121ff565b91505092915050565b6000813590506122ca81613748565b92915050565b6000602082840312156122e257600080fd5b60006122f08482850161223d565b91505092915050565b6000806040838503121561230c57600080fd5b600061231a8582860161223d565b925050602061232b8582860161223d565b9150509250929050565b60008060006060848603121561234a57600080fd5b60006123588682870161223d565b93505060206123698682870161223d565b925050604061237a868287016122bb565b9150509250925092565b6000806000806080858703121561239a57600080fd5b60006123a88782880161223d565b94505060206123b98782880161223d565b93505060406123ca878288016122bb565b925050606085013567ffffffffffffffff8111156123e757600080fd5b6123f387828801612291565b91505092959194509250565b6000806040838503121561241257600080fd5b60006124208582860161223d565b925050602061243185828601612252565b9150509250929050565b6000806040838503121561244e57600080fd5b600061245c8582860161223d565b925050602061246d858286016122bb565b9150509250929050565b60006020828403121561248957600080fd5b600061249784828501612267565b91505092915050565b6000602082840312156124b257600080fd5b60006124c08482850161227c565b91505092915050565b6000602082840312156124db57600080fd5b60006124e9848285016122bb565b91505092915050565b6124fb816134d4565b82525050565b61250a816134e6565b82525050565b600061251b8261337c565b6125258185613392565b9350612535818560208601613557565b61253e816136f2565b840191505092915050565b600061255482613387565b61255e81856133a3565b935061256e818560208601613557565b612577816136f2565b840191505092915050565b600061258d82613387565b61259781856133b4565b93506125a7818560208601613557565b80840191505092915050565b600081546125c08161358a565b6125ca81866133b4565b945060018216600081146125e557600181146125f657612629565b60ff19831686528186019350612629565b6125ff85613367565b60005b8381101561262157815481890152600182019150602081019050612602565b838801955050505b50505092915050565b600061263f6032836133a3565b91507f4552433732313a207472616e7366657220746f206e6f6e20455243373231526560008301527f63656976657220696d706c656d656e74657200000000000000000000000000006020830152604082019050919050565b60006126a5601c836133a3565b91507f4552433732313a20746f6b656e20616c7265616479206d696e746564000000006000830152602082019050919050565b60006126e5600a836133b4565b91507f54484952445f574f5244000000000000000000000000000000000000000000006000830152600a82019050919050565b60006127256024836133a3565b91507f4552433732313a207472616e7366657220746f20746865207a65726f2061646460008301527f72657373000000000000000000000000000000000000000000000000000000006020830152604082019050919050565b600061278b6019836133a3565b91507f4552433732313a20617070726f766520746f2063616c6c6572000000000000006000830152602082019050919050565b60006127cb6063836133b4565b91507f222c20226465736372697074696f6e223a20224120686967686c79206163636c60008301527f61696d656420636f6c6c656374696f6e206f6620737175617265732e222c202260208301527f696d616765223a2022646174613a696d6167652f7376672b786d6c3b6261736560408301527f36342c00000000000000000000000000000000000000000000000000000000006060830152606382019050919050565b600061287d600b836133b4565b91507f5345434f4e445f574f52440000000000000000000000000000000000000000006000830152600b82019050919050565b60006128bd602c836133a3565b91507f4552433732313a206f70657261746f7220717565727920666f72206e6f6e657860008301527f697374656e7420746f6b656e00000000000000000000000000000000000000006020830152604082019050919050565b6000612923600d836133b4565b91507f3c2f746578743e3c2f7376673e000000000000000000000000000000000000006000830152600d82019050919050565b60006129636038836133a3565b91507f4552433732313a20617070726f76652063616c6c6572206973206e6f74206f7760008301527f6e6572206e6f7220617070726f76656420666f7220616c6c00000000000000006020830152604082019050919050565b60006129c9602a836133a3565b91507f4552433732313a2062616c616e636520717565727920666f7220746865207a6560008301527f726f2061646472657373000000000000000000000000000000000000000000006020830152604082019050919050565b6000612a2f6029836133a3565b91507f4552433732313a206f776e657220717565727920666f72206e6f6e657869737460008301527f656e7420746f6b656e00000000000000000000000000000000000000000000006020830152604082019050919050565b6000612a95602e836133a3565b91507f45524337323155524953746f726167653a2055524920736574206f66206e6f6e60008301527f6578697374656e7420746f6b656e0000000000000000000000000000000000006020830152604082019050919050565b6000612afb6002836133b4565b91507f227d0000000000000000000000000000000000000000000000000000000000006000830152600282019050919050565b6000612b3b6020836133a3565b91507f4552433732313a206d696e7420746f20746865207a65726f20616464726573736000830152602082019050919050565b6000612b7b6031836133a3565b91507f45524337323155524953746f726167653a2055524920717565727920666f722060008301527f6e6f6e6578697374656e7420746f6b656e0000000000000000000000000000006020830152604082019050919050565b6000612be1602c836133a3565b91507f4552433732313a20617070726f76656420717565727920666f72206e6f6e657860008301527f697374656e7420746f6b656e00000000000000000000000000000000000000006020830152604082019050919050565b6000612c476029836133a3565b91507f4552433732313a207472616e73666572206f6620746f6b656e2074686174206960008301527f73206e6f74206f776e00000000000000000000000000000000000000000000006020830152604082019050919050565b6000612cad602f836133a3565b91507f4552433732314d657461646174613a2055524920717565727920666f72206e6f60008301527f6e6578697374656e7420746f6b656e00000000000000000000000000000000006020830152604082019050919050565b6000612d13600a836133b4565b91507f7b226e616d65223a2022000000000000000000000000000000000000000000006000830152600a82019050919050565b6000612d536021836133a3565b91507f4552433732313a20617070726f76616c20746f2063757272656e74206f776e6560008301527f72000000000000000000000000000000000000000000000000000000000000006020830152604082019050919050565b6000612db9600a836133b4565b91507f46495253545f574f5244000000000000000000000000000000000000000000006000830152600a82019050919050565b6000612df9601d836133b4565b91507f646174613a6170706c69636174696f6e2f6a736f6e3b6261736536342c0000006000830152601d82019050919050565b6000612e396031836133a3565b91507f4552433732313a207472616e736665722063616c6c6572206973206e6f74206f60008301527f776e6572206e6f7220617070726f7665640000000000000000000000000000006020830152604082019050919050565b612e9b8161353e565b82525050565b6000612ead8284612582565b915081905092915050565b6000612ec48285612582565b9150612ed08284612582565b91508190509392505050565b6000612ee88286612582565b9150612ef48285612582565b9150612f008284612582565b9150819050949350505050565b6000612f1982856125b3565b9150612f258284612582565b9150612f3082612916565b91508190509392505050565b6000612f47826126d8565b9150612f538284612582565b915081905092915050565b6000612f6982612870565b9150612f758284612582565b915081905092915050565b6000612f8b82612d06565b9150612f978285612582565b9150612fa2826127be565b9150612fae8284612582565b9150612fb982612aee565b91508190509392505050565b6000612fd082612dac565b9150612fdc8284612582565b915081905092915050565b6000612ff282612dec565b9150612ffe8284612582565b915081905092915050565b600060208201905061301e60008301846124f2565b92915050565b600060808201905061303960008301876124f2565b61304660208301866124f2565b6130536040830185612e92565b81810360608301526130658184612510565b905095945050505050565b60006020820190506130856000830184612501565b92915050565b600060208201905081810360008301526130a58184612549565b905092915050565b600060608201905081810360008301526130c78186612549565b90506130d66020830185612e92565b6130e360408301846124f2565b949350505050565b6000602082019050818103600083015261310481612632565b9050919050565b6000602082019050818103600083015261312481612698565b9050919050565b6000602082019050818103600083015261314481612718565b9050919050565b600060208201905081810360008301526131648161277e565b9050919050565b60006020820190508181036000830152613184816128b0565b9050919050565b600060208201905081810360008301526131a481612956565b9050919050565b600060208201905081810360008301526131c4816129bc565b9050919050565b600060208201905081810360008301526131e481612a22565b9050919050565b6000602082019050818103600083015261320481612a88565b9050919050565b6000602082019050818103600083015261322481612b2e565b9050919050565b6000602082019050818103600083015261324481612b6e565b9050919050565b6000602082019050818103600083015261326481612bd4565b9050919050565b6000602082019050818103600083015261328481612c3a565b9050919050565b600060208201905081810360008301526132a481612ca0565b9050919050565b600060208201905081810360008301526132c481612d46565b9050919050565b600060208201905081810360008301526132e481612e2c565b9050919050565b60006020820190506133006000830184612e92565b92915050565b6000604051905081810181811067ffffffffffffffff8211171561332d5761332c6136c3565b5b8060405250919050565b600067ffffffffffffffff821115613352576133516136c3565b5b601f19601f8301169050602081019050919050565b60008190508160005260206000209050919050565b600081519050919050565b600081519050919050565b600082825260208201905092915050565b600082825260208201905092915050565b600081905092915050565b60006133ca8261353e565b91506133d58361353e565b9250827fffffffffffffffffffffffffffffffffffffffffffffffffffffffffffffffff0382111561340a57613409613636565b5b828201905092915050565b60006134208261353e565b915061342b8361353e565b92508261343b5761343a613665565b5b828204905092915050565b60006134518261353e565b915061345c8361353e565b9250817fffffffffffffffffffffffffffffffffffffffffffffffffffffffffffffffff048311821515161561349557613494613636565b5b828202905092915050565b60006134ab8261353e565b91506134b68361353e565b9250828210156134c9576134c8613636565b5b828203905092915050565b60006134df8261351e565b9050919050565b60008115159050919050565b60007fffffffff0000000000000000000000000000000000000000000000000000000082169050919050565b600073ffffffffffffffffffffffffffffffffffffffff82169050919050565b6000819050919050565b82818337600083830152505050565b60005b8381101561357557808201518184015260208101905061355a565b83811115613584576000848401525b50505050565b600060028204905060018216806135a257607f821691505b602082108114156135b6576135b5613694565b5b50919050565b60006135c78261353e565b91507fffffffffffffffffffffffffffffffffffffffffffffffffffffffffffffffff8214156135fa576135f9613636565b5b600182019050919050565b60006136108261353e565b915061361b8361353e565b92508261362b5761362a613665565b5b828206905092915050565b7f4e487b7100000000000000000000000000000000000000000000000000000000600052601160045260246000fd5b7f4e487b7100000000000000000000000000000000000000000000000000000000600052601260045260246000fd5b7f4e487b7100000000000000000000000000000000000000000000000000000000600052602260045260246000fd5b7f4e487b7100000000000000000000000000000000000000000000000000000000600052604160045260246000fd5b6000601f19601f8301169050919050565b61370c816134d4565b811461371757600080fd5b50565b613723816134e6565b811461372e57600080fd5b50565b61373a816134f2565b811461374557600080fd5b50565b6137518161353e565b811461375c57600080fd5b5056fe416e204e465420772f20494420257320686173206265656e206d696e74656420746f2025734142434445464748494a4b4c4d4e4f505152535455565758595a6162636465666768696a6b6c6d6e6f707172737475767778797a303132333435363738392b2fa264697066735822122067c53ec2bb387147637f8a6272faa9a11f567f047197cc6448eb14469b4f563664736f6c634300080000333c73766720786d6c6e733d27687474703a2f2f7777772e77332e6f72672f323030302f73766727207072657365727665417370656374526174696f3d27784d696e594d696e206d656574272076696577426f783d273020302033353020333530273e3c7374796c653e2e62617365207b2066696c6c3a2077686974653b20666f6e742d66616d696c793a2073657269663b20666f6e742d73697a653a20323470783b207d3c2f7374796c653e3c726563742077696474683d273130302527206865696768743d2731303025272066696c6c3d27626c61636b27202f3e3c7465787420783d273530252720793d273530252720636c6173733d27626173652720646f6d696e616e742d626173656c696e653d276d6964646c652720746578742d616e63686f723d276d6964646c65273e",
  "linkReferences": {},
  "deployedLinkReferences": {}
}