{
  "_format": "hh-sol-artifact-1",
  "contractName": "MyEpicNFT",
  "sourceName": "contracts/MyEpicNFT.sol",
  "abi": [
    {
      "inputs": [],
      "stateMutability": "nonpayable",
      "type": "constructor"
    },
    {
      "anonymous": false,
      "inputs": [
        {
          "indexed": true,
          "internalType": "address",
          "name": "owner",
          "type": "address"
        },
        {
          "indexed": true,
          "internalType": "address",
          "name": "approved",
          "type": "address"
        },
        {
          "indexed": true,
          "internalType": "uint256",
          "name": "tokenId",
          "type": "uint256"
        }
      ],
      "name": "Approval",
      "type": "event"
    },
    {
      "anonymous": false,
      "inputs": [
        {
          "indexed": true,
          "internalType": "address",
          "name": "owner",
          "type": "address"
        },
        {
          "indexed": true,
          "internalType": "address",
          "name": "operator",
          "type": "address"
        },
        {
          "indexed": false,
          "internalType": "bool",
          "name": "approved",
          "type": "bool"
        }
      ],
      "name": "ApprovalForAll",
      "type": "event"
    },
    {
      "anonymous": false,
      "inputs": [
        {
          "indexed": true,
          "internalType": "address",
          "name": "from",
          "type": "address"
        },
        {
          "indexed": true,
          "internalType": "address",
          "name": "to",
          "type": "address"
        },
        {
          "indexed": true,
          "internalType": "uint256",
          "name": "tokenId",
          "type": "uint256"
        }
      ],
      "name": "Transfer",
      "type": "event"
    },
    {
      "inputs": [
        {
          "internalType": "address",
          "name": "to",
          "type": "address"
        },
        {
          "internalType": "uint256",
          "name": "tokenId",
          "type": "uint256"
        }
      ],
      "name": "approve",
      "outputs": [],
      "stateMutability": "nonpayable",
      "type": "function"
    },
    {
      "inputs": [
        {
          "internalType": "address",
          "name": "owner",
          "type": "address"
        }
      ],
      "name": "balanceOf",
      "outputs": [
        {
          "internalType": "uint256",
          "name": "",
          "type": "uint256"
        }
      ],
      "stateMutability": "view",
      "type": "function"
    },
    {
      "inputs": [
        {
          "internalType": "uint256",
          "name": "tokenId",
          "type": "uint256"
        }
      ],
      "name": "getApproved",
      "outputs": [
        {
          "internalType": "address",
          "name": "",
          "type": "address"
        }
      ],
      "stateMutability": "view",
      "type": "function"
    },
    {
      "inputs": [],
      "name": "getTotalNFTs",
      "outputs": [
        {
          "internalType": "uint256",
          "name": "",
          "type": "uint256"
        }
      ],
      "stateMutability": "view",
      "type": "function"
    },
    {
      "inputs": [
        {
          "internalType": "address",
          "name": "owner",
          "type": "address"
        },
        {
          "internalType": "address",
          "name": "operator",
          "type": "address"
        }
      ],
      "name": "isApprovedForAll",
      "outputs": [
        {
          "internalType": "bool",
          "name": "",
          "type": "bool"
        }
      ],
      "stateMutability": "view",
      "type": "function"
    },
    {
      "inputs": [],
      "name": "makeAnEpicNFT",
      "outputs": [],
      "stateMutability": "nonpayable",
      "type": "function"
    },
    {
      "inputs": [],
      "name": "name",
      "outputs": [
        {
          "internalType": "string",
          "name": "",
          "type": "string"
        }
      ],
      "stateMutability": "view",
      "type": "function"
    },
    {
      "inputs": [
        {
          "internalType": "uint256",
          "name": "tokenId",
          "type": "uint256"
        }
      ],
      "name": "ownerOf",
      "outputs": [
        {
          "internalType": "address",
          "name": "",
          "type": "address"
        }
      ],
      "stateMutability": "view",
      "type": "function"
    },
    {
      "inputs": [
        {
          "internalType": "uint256",
          "name": "tokenId",
          "type": "uint256"
        }
      ],
      "name": "pickRandomFirstWord",
      "outputs": [
        {
          "internalType": "string",
          "name": "",
          "type": "string"
        }
      ],
      "stateMutability": "view",
      "type": "function"
    },
    {
      "inputs": [
        {
          "internalType": "uint256",
          "name": "tokenId",
          "type": "uint256"
        }
      ],
      "name": "pickRandomSecondWord",
      "outputs": [
        {
          "internalType": "string",
          "name": "",
          "type": "string"
        }
      ],
      "stateMutability": "view",
      "type": "function"
    },
    {
      "inputs": [
        {
          "internalType": "uint256",
          "name": "tokenId",
          "type": "uint256"
        }
      ],
      "name": "pickRandomThirdWord",
      "outputs": [
        {
          "internalType": "string",
          "name": "",
          "type": "string"
        }
      ],
      "stateMutability": "view",
      "type": "function"
    },
    {
      "inputs": [
        {
          "internalType": "address",
          "name": "from",
          "type": "address"
        },
        {
          "internalType": "address",
          "name": "to",
          "type": "address"
        },
        {
          "internalType": "uint256",
          "name": "tokenId",
          "type": "uint256"
        }
      ],
      "name": "safeTransferFrom",
      "outputs": [],
      "stateMutability": "nonpayable",
      "type": "function"
    },
    {
      "inputs": [
        {
          "internalType": "address",
          "name": "from",
          "type": "address"
        },
        {
          "internalType": "address",
          "name": "to",
          "type": "address"
        },
        {
          "internalType": "uint256",
          "name": "tokenId",
          "type": "uint256"
        },
        {
          "internalType": "bytes",
          "name": "_data",
          "type": "bytes"
        }
      ],
      "name": "safeTransferFrom",
      "outputs": [],
      "stateMutability": "nonpayable",
      "type": "function"
    },
    {
      "inputs": [
        {
          "internalType": "address",
          "name": "operator",
          "type": "address"
        },
        {
          "internalType": "bool",
          "name": "approved",
          "type": "bool"
        }
      ],
      "name": "setApprovalForAll",
      "outputs": [],
      "stateMutability": "nonpayable",
      "type": "function"
    },
    {
      "inputs": [
        {
          "internalType": "bytes4",
          "name": "interfaceId",
          "type": "bytes4"
        }
      ],
      "name": "supportsInterface",
      "outputs": [
        {
          "internalType": "bool",
          "name": "",
          "type": "bool"
        }
      ],
      "stateMutability": "view",
      "type": "function"
    },
    {
      "inputs": [],
      "name": "symbol",
      "outputs": [
        {
          "internalType": "string",
          "name": "",
          "type": "string"
        }
      ],
      "stateMutability": "view",
      "type": "function"
    },
    {
      "inputs": [
        {
          "internalType": "uint256",
          "name": "tokenId",
          "type": "uint256"
        }
      ],
      "name": "tokenURI",
      "outputs": [
        {
          "internalType": "string",
          "name": "",
          "type": "string"
        }
      ],
      "stateMutability": "view",
      "type": "function"
    },
    {
      "inputs": [
        {
          "internalType": "address",
          "name": "from",
          "type": "address"
        },
        {
          "internalType": "address",
          "name": "to",
          "type": "address"
        },
        {
          "internalType": "uint256",
          "name": "tokenId",
          "type": "uint256"
        }
      ],
      "name": "transferFrom",
      "outputs": [],
      "stateMutability": "nonpayable",
      "type": "function"
    }
  ],
  "bytecode": "0x608060405260405180610160016040528061012f81526020016200422e61012f913960089080519060200190620000389291906200067e565b506040518060c001604052806040518060400160405280600981526020017f416d7374657264616d000000000000000000000000000000000000000000000081525081526020016040518060400160405280600381526020017f45444d000000000000000000000000000000000000000000000000000000000081525081526020016040518060400160405280600681526020017f507974686f6e000000000000000000000000000000000000000000000000000081525081526020016040518060400160405280600881526020017f457468657265756d00000000000000000000000000000000000000000000000081525081526020016040518060400160405280600881526020017f4d6564656c6c696e00000000000000000000000000000000000000000000000081525081526020016040518060400160405280600581526020017f466c6163610000000000000000000000000000000000000000000000000000008152508152506009906006620001b69291906200070f565b506040518060c001604052806040518060400160405280600781526020017f417765736f6d650000000000000000000000000000000000000000000000000081525081526020016040518060400160405280600481526020017f57474d490000000000000000000000000000000000000000000000000000000081525081526020016040518060400160405280600881526020017f536f6c696469747900000000000000000000000000000000000000000000000081525081526020016040518060400160405280600681526020017f4272617a696c000000000000000000000000000000000000000000000000000081525081526020016040518060400160405280600581526020017f536d61727400000000000000000000000000000000000000000000000000000081525081526020016040518060400160405280600581526020017f4e6f6d6164000000000000000000000000000000000000000000000000000000815250815250600a906006620003349291906200070f565b506040518060c001604052806040518060400160405280600781526020017f46726565646f6d0000000000000000000000000000000000000000000000000081525081526020016040518060400160405280600981526020017f4368616c6c656e6765000000000000000000000000000000000000000000000081525081526020016040518060400160405280600581526020017f506172697300000000000000000000000000000000000000000000000000000081525081526020016040518060400160405280600581526020017f4170706c6500000000000000000000000000000000000000000000000000000081525081526020016040518060400160405280600a81526020017f496e766573746d656e740000000000000000000000000000000000000000000081525081526020016040518060400160405280600581526020017f426f6f7468000000000000000000000000000000000000000000000000000000815250815250600b906006620004b29291906200070f565b50348015620004c057600080fd5b506040518060400160405280600881526020017f426f6f74684e46540000000000000000000000000000000000000000000000008152506040518060400160405280600581526020017f424f4f54480000000000000000000000000000000000000000000000000000008152508160009080519060200190620005459291906200067e565b5080600190805190602001906200055e9291906200067e565b505050620005ac6040518060400160405280601e81526020017f54686973206973206d79204e465420636f6e74726163742e2057686f61210000815250620005b260201b620010e31760201c565b62000930565b6200065281604051602401620005c9919062000844565b6040516020818303038152906040527f41304fac000000000000000000000000000000000000000000000000000000007bffffffffffffffffffffffffffffffffffffffffffffffffffffffff19166020820180517bffffffffffffffffffffffffffffffffffffffffffffffffffffffff83818316178352505050506200065560201b60201c565b50565b60008151905060006a636f6e736f6c652e6c6f679050602083016000808483855afa5050505050565b8280546200068c90620008ba565b90600052602060002090601f016020900481019282620006b05760008555620006fc565b82601f10620006cb57805160ff1916838001178555620006fc565b82800160010185558215620006fc579182015b82811115620006fb578251825591602001919060010190620006de565b5b5090506200070b919062000776565b5090565b82805482825590600052602060002090810192821562000763579160200282015b8281111562000762578251829080519060200190620007519291906200067e565b509160200191906001019062000730565b5b50905062000772919062000795565b5090565b5b808211156200079157600081600090555060010162000777565b5090565b5b80821115620007b95760008181620007af9190620007bd565b5060010162000796565b5090565b508054620007cb90620008ba565b6000825580601f10620007df575062000800565b601f016020900490600052602060002090810190620007ff919062000776565b5b50565b6000620008108262000868565b6200081c818562000873565b93506200082e81856020860162000884565b62000839816200091f565b840191505092915050565b6000602082019050818103600083015262000860818462000803565b905092915050565b600081519050919050565b600082825260208201905092915050565b60005b83811015620008a457808201518184015260208101905062000887565b83811115620008b4576000848401525b50505050565b60006002820490506001821680620008d357607f821691505b60208210811415620008ea57620008e9620008f0565b5b50919050565b7f4e487b7100000000000000000000000000000000000000000000000000000000600052602260045260246000fd5b6000601f19601f8301169050919050565b6138ee80620009406000396000f3fe608060405234801561001057600080fd5b50600436106101165760003560e01c806370a08231116100a2578063b88d4fde11610071578063b88d4fde14610305578063c575757a14610321578063c87b56dd14610351578063de9d132f14610381578063e985e9c51461038b57610116565b806370a082311461026b57806395d89b411461029b578063a22cb465146102b9578063b187301f146102d557610116565b806323b872dd116100e957806323b872dd146101b55780632de38d68146101d157806330bdb3511461020157806342842e0e1461021f5780636352211e1461023b57610116565b806301ffc9a71461011b57806306fdde031461014b578063081812fc14610169578063095ea7b314610199575b600080fd5b610135600480360381019061013091906124e3565b6103bb565b6040516101429190613164565b60405180910390f35b61015361049d565b604051610160919061317f565b60405180910390f35b610183600480360381019061017e9190612535565b61052f565b60405161019091906130fd565b60405180910390f35b6101b360048036038101906101ae91906124a7565b6105b4565b005b6101cf60048036038101906101ca91906123a1565b6106cc565b005b6101eb60048036038101906101e69190612535565b61072c565b6040516101f8919061317f565b60405180910390f35b61020961084a565b60405161021691906133df565b60405180910390f35b610239600480360381019061023491906123a1565b610860565b005b61025560048036038101906102509190612535565b610880565b60405161026291906130fd565b60405180910390f35b6102856004803603810190610280919061233c565b610932565b60405161029291906133df565b60405180910390f35b6102a36109ea565b6040516102b0919061317f565b60405180910390f35b6102d360048036038101906102ce919061246b565b610a7c565b005b6102ef60048036038101906102ea9190612535565b610a92565b6040516102fc919061317f565b60405180910390f35b61031f600480360381019061031a91906123f0565b610bb0565b005b61033b60048036038101906103369190612535565b610c12565b604051610348919061317f565b60405180910390f35b61036b60048036038101906103669190612535565b610d30565b604051610378919061317f565b60405180910390f35b610389610e82565b005b6103a560048036038101906103a09190612365565b61104f565b6040516103b29190613164565b60405180910390f35b60007f80ac58cd000000000000000000000000000000000000000000000000000000007bffffffffffffffffffffffffffffffffffffffffffffffffffffffff1916827bffffffffffffffffffffffffffffffffffffffffffffffffffffffff1916148061048657507f5b5e139f000000000000000000000000000000000000000000000000000000007bffffffffffffffffffffffffffffffffffffffffffffffffffffffff1916827bffffffffffffffffffffffffffffffffffffffffffffffffffffffff1916145b8061049657506104958261117c565b5b9050919050565b6060600080546104ac9061367e565b80601f01602080910402602001604051908101604052809291908181526020018280546104d89061367e565b80156105255780601f106104fa57610100808354040283529160200191610525565b820191906000526020600020905b81548152906001019060200180831161050857829003601f168201915b5050505050905090565b600061053a826111e6565b610579576040517f08c379a00000000000000000000000000000000000000000000000000000000081526004016105709061333f565b60405180910390fd5b6004600083815260200190815260200160002060009054906101000a900473ffffffffffffffffffffffffffffffffffffffff169050919050565b60006105bf82610880565b90508073ffffffffffffffffffffffffffffffffffffffff168373ffffffffffffffffffffffffffffffffffffffff161415610630576040517f08c379a00000000000000000000000000000000000000000000000000000000081526004016106279061339f565b60405180910390fd5b8073ffffffffffffffffffffffffffffffffffffffff1661064f611252565b73ffffffffffffffffffffffffffffffffffffffff16148061067e575061067d81610678611252565b61104f565b5b6106bd576040517f08c379a00000000000000000000000000000000000000000000000000000000081526004016106b49061327f565b60405180910390fd5b6106c7838361125a565b505050565b6106dd6106d7611252565b82611313565b61071c576040517f08c379a0000000000000000000000000000000000000000000000000000000008152600401610713906133bf565b60405180910390fd5b6107278383836113f1565b505050565b6060600061076061073c8461164d565b60405160200161074c91906130b9565b6040516020818303038152906040526117fa565b90506009805490508161077391906136f9565b9050600981815481106107af577f4e487b7100000000000000000000000000000000000000000000000000000000600052603260045260246000fd5b9060005260206000200180546107c49061367e565b80601f01602080910402602001604051908101604052809291908181526020018280546107f09061367e565b801561083d5780601f106108125761010080835404028352916020019161083d565b820191906000526020600020905b81548152906001019060200180831161082057829003601f168201915b5050505050915050919050565b600080610857600761182d565b90508091505090565b61087b83838360405180602001604052806000815250610bb0565b505050565b6000806002600084815260200190815260200160002060009054906101000a900473ffffffffffffffffffffffffffffffffffffffff169050600073ffffffffffffffffffffffffffffffffffffffff168173ffffffffffffffffffffffffffffffffffffffff161415610929576040517f08c379a0000000000000000000000000000000000000000000000000000000008152600401610920906132bf565b60405180910390fd5b80915050919050565b60008073ffffffffffffffffffffffffffffffffffffffff168273ffffffffffffffffffffffffffffffffffffffff1614156109a3576040517f08c379a000000000000000000000000000000000000000000000000000000000815260040161099a9061329f565b60405180910390fd5b600360008373ffffffffffffffffffffffffffffffffffffffff1673ffffffffffffffffffffffffffffffffffffffff168152602001908152602001600020549050919050565b6060600180546109f99061367e565b80601f0160208091040260200160405190810160405280929190818152602001828054610a259061367e565b8015610a725780601f10610a4757610100808354040283529160200191610a72565b820191906000526020600020905b815481529060010190602001808311610a5557829003601f168201915b5050505050905090565b610a8e610a87611252565b838361183b565b5050565b60606000610ac6610aa28461164d565b604051602001610ab29190613030565b6040516020818303038152906040526117fa565b9050600a8054905081610ad991906136f9565b9050600a8181548110610b15577f4e487b7100000000000000000000000000000000000000000000000000000000600052603260045260246000fd5b906000526020600020018054610b2a9061367e565b80601f0160208091040260200160405190810160405280929190818152602001828054610b569061367e565b8015610ba35780601f10610b7857610100808354040283529160200191610ba3565b820191906000526020600020905b815481529060010190602001808311610b8657829003601f168201915b5050505050915050919050565b610bc1610bbb611252565b83611313565b610c00576040517f08c379a0000000000000000000000000000000000000000000000000000000008152600401610bf7906133bf565b60405180910390fd5b610c0c848484846119a8565b50505050565b60606000610c46610c228461164d565b604051602001610c32919061300e565b6040516020818303038152906040526117fa565b9050600b8054905081610c5991906136f9565b9050600b8181548110610c95577f4e487b7100000000000000000000000000000000000000000000000000000000600052603260045260246000fd5b906000526020600020018054610caa9061367e565b80601f0160208091040260200160405190810160405280929190818152602001828054610cd69061367e565b8015610d235780601f10610cf857610100808354040283529160200191610d23565b820191906000526020600020905b815481529060010190602001808311610d0657829003601f168201915b5050505050915050919050565b6060610d3b826111e6565b610d7a576040517f08c379a0000000000000000000000000000000000000000000000000000000008152600401610d719061331f565b60405180910390fd5b6000600660008481526020019081526020016000208054610d9a9061367e565b80601f0160208091040260200160405190810160405280929190818152602001828054610dc69061367e565b8015610e135780601f10610de857610100808354040283529160200191610e13565b820191906000526020600020905b815481529060010190602001808311610df657829003601f168201915b505050505090506000610e24611a04565b9050600081511415610e3a578192505050610e7d565b600082511115610e6f578082604051602001610e57929190612f8a565b60405160208183030381529060405292505050610e7d565b610e7884611a1b565b925050505b919050565b6000610e8e600761182d565b90506000610e9b8261072c565b90506000610ea883610a92565b90506000610eb584610c12565b90506000838383604051602001610ece93929190612fae565b60405160208183030381529060405290506000600882604051602001610ef5929190612fdf565b60405160208183030381529060405290506000610f3a83610f1584611ac2565b604051602001610f26929190613074565b604051602081830303815290604052611ac2565b9050600081604051602001610f4f91906130db565b6040516020818303038152906040529050610f9e6040518060400160405280601581526020017f0a2d2d2d2d2d2d2d2d2d2d2d2d2d2d2d2d2d2d2d2d00000000000000000000008152506110e3565b610fc681604051602001610fb29190613052565b6040516020818303038152906040526110e3565b6110046040518060400160405280601581526020017f2d2d2d2d2d2d2d2d2d2d2d2d2d2d2d2d2d2d2d2d0a00000000000000000000008152506110e3565b61100e3389611c80565b6110188882611c9e565b6110226007611d12565b611045604051806060016040528060258152602001613854602591398933611d28565b5050505050505050565b6000600560008473ffffffffffffffffffffffffffffffffffffffff1673ffffffffffffffffffffffffffffffffffffffff16815260200190815260200160002060008373ffffffffffffffffffffffffffffffffffffffff1673ffffffffffffffffffffffffffffffffffffffff16815260200190815260200160002060009054906101000a900460ff16905092915050565b611179816040516024016110f7919061317f565b6040516020818303038152906040527f41304fac000000000000000000000000000000000000000000000000000000007bffffffffffffffffffffffffffffffffffffffffffffffffffffffff19166020820180517bffffffffffffffffffffffffffffffffffffffffffffffffffffffff8381831617835250505050611dc7565b50565b60007f01ffc9a7000000000000000000000000000000000000000000000000000000007bffffffffffffffffffffffffffffffffffffffffffffffffffffffff1916827bffffffffffffffffffffffffffffffffffffffffffffffffffffffff1916149050919050565b60008073ffffffffffffffffffffffffffffffffffffffff166002600084815260200190815260200160002060009054906101000a900473ffffffffffffffffffffffffffffffffffffffff1673ffffffffffffffffffffffffffffffffffffffff1614159050919050565b600033905090565b816004600083815260200190815260200160002060006101000a81548173ffffffffffffffffffffffffffffffffffffffff021916908373ffffffffffffffffffffffffffffffffffffffff160217905550808273ffffffffffffffffffffffffffffffffffffffff166112cd83610880565b73ffffffffffffffffffffffffffffffffffffffff167f8c5be1e5ebec7d5bd14f71427d1e84f3dd0314c0f7b2291e5b200ac8c7c3b92560405160405180910390a45050565b600061131e826111e6565b61135d576040517f08c379a00000000000000000000000000000000000000000000000000000000081526004016113549061325f565b60405180910390fd5b600061136883610880565b90508073ffffffffffffffffffffffffffffffffffffffff168473ffffffffffffffffffffffffffffffffffffffff1614806113d757508373ffffffffffffffffffffffffffffffffffffffff166113bf8461052f565b73ffffffffffffffffffffffffffffffffffffffff16145b806113e857506113e7818561104f565b5b91505092915050565b8273ffffffffffffffffffffffffffffffffffffffff1661141182610880565b73ffffffffffffffffffffffffffffffffffffffff1614611467576040517f08c379a000000000000000000000000000000000000000000000000000000000815260040161145e9061335f565b60405180910390fd5b600073ffffffffffffffffffffffffffffffffffffffff168273ffffffffffffffffffffffffffffffffffffffff1614156114d7576040517f08c379a00000000000000000000000000000000000000000000000000000000081526004016114ce9061321f565b60405180910390fd5b6114e2838383611df0565b6114ed60008261125a565b6001600360008573ffffffffffffffffffffffffffffffffffffffff1673ffffffffffffffffffffffffffffffffffffffff168152602001908152602001600020600082825461153d9190613594565b925050819055506001600360008473ffffffffffffffffffffffffffffffffffffffff1673ffffffffffffffffffffffffffffffffffffffff168152602001908152602001600020600082825461159491906134b3565b92505081905550816002600083815260200190815260200160002060006101000a81548173ffffffffffffffffffffffffffffffffffffffff021916908373ffffffffffffffffffffffffffffffffffffffff160217905550808273ffffffffffffffffffffffffffffffffffffffff168473ffffffffffffffffffffffffffffffffffffffff167fddf252ad1be2c89b69c2b068fc378daa952ba7f163c4a11628f55a4df523b3ef60405160405180910390a4505050565b60606000821415611695576040518060400160405280600181526020017f300000000000000000000000000000000000000000000000000000000000000081525090506117f5565b600082905060005b600082146116c75780806116b0906136b0565b915050600a826116c09190613509565b915061169d565b60008167ffffffffffffffff811115611709577f4e487b7100000000000000000000000000000000000000000000000000000000600052604160045260246000fd5b6040519080825280601f01601f19166020018201604052801561173b5781602001600182028036833780820191505090505b5090505b600085146117ee576001826117549190613594565b9150600a8561176391906136f9565b603061176f91906134b3565b60f81b8183815181106117ab577f4e487b7100000000000000000000000000000000000000000000000000000000600052603260045260246000fd5b60200101907effffffffffffffffffffffffffffffffffffffffffffffffffffffffffffff1916908160001a905350600a856117e79190613509565b945061173f565b8093505050505b919050565b60008160405160200161180d9190612f73565b6040516020818303038152906040528051906020012060001c9050919050565b600081600001549050919050565b8173ffffffffffffffffffffffffffffffffffffffff168373ffffffffffffffffffffffffffffffffffffffff1614156118aa576040517f08c379a00000000000000000000000000000000000000000000000000000000081526004016118a19061323f565b60405180910390fd5b80600560008573ffffffffffffffffffffffffffffffffffffffff1673ffffffffffffffffffffffffffffffffffffffff16815260200190815260200160002060008473ffffffffffffffffffffffffffffffffffffffff1673ffffffffffffffffffffffffffffffffffffffff16815260200190815260200160002060006101000a81548160ff0219169083151502179055508173ffffffffffffffffffffffffffffffffffffffff168373ffffffffffffffffffffffffffffffffffffffff167f17307eab39ab6107e8899845ad3d59bd9653f200f220920489ca2b5937696c318360405161199b9190613164565b60405180910390a3505050565b6119b38484846113f1565b6119bf84848484611df5565b6119fe576040517f08c379a00000000000000000000000000000000000000000000000000000000081526004016119f5906131df565b60405180910390fd5b50505050565b606060405180602001604052806000815250905090565b6060611a26826111e6565b611a65576040517f08c379a0000000000000000000000000000000000000000000000000000000008152600401611a5c9061337f565b60405180910390fd5b6000611a6f611a04565b90506000815111611a8f5760405180602001604052806000815250611aba565b80611a998461164d565b604051602001611aaa929190612f8a565b6040516020818303038152906040525b915050919050565b60606000825190506000811415611aeb5760405180602001604052806000815250915050611c7b565b60006003600283611afc91906134b3565b611b069190613509565b6004611b12919061353a565b90506000602082611b2391906134b3565b67ffffffffffffffff811115611b62577f4e487b7100000000000000000000000000000000000000000000000000000000600052604160045260246000fd5b6040519080825280601f01601f191660200182016040528015611b945781602001600182028036833780820191505090505b5090506000604051806060016040528060408152602001613879604091399050600181016020830160005b86811015611c385760038101905062ffffff818a015116603f8160121c168401518060081b905060ff603f83600c1c1686015116810190508060081b905060ff603f8360061c1686015116810190508060081b905060ff603f831686015116810190508060e01b90508084526004840193505050611bbf565b506003860660018114611c525760028114611c6257611c6d565b613d3d60f01b6002830352611c6d565b603d60f81b60018303525b508484525050819450505050505b919050565b611c9a828260405180602001604052806000815250611f8c565b5050565b611ca7826111e6565b611ce6576040517f08c379a0000000000000000000000000000000000000000000000000000000008152600401611cdd906132df565b60405180910390fd5b80600660008481526020019081526020016000209080519060200190611d0d9291906121c8565b505050565b6001816000016000828254019250508190555050565b611dc2838383604051602401611d40939291906131a1565b6040516020818303038152906040527fe3849f79000000000000000000000000000000000000000000000000000000007bffffffffffffffffffffffffffffffffffffffffffffffffffffffff19166020820180517bffffffffffffffffffffffffffffffffffffffffffffffffffffffff8381831617835250505050611dc7565b505050565b60008151905060006a636f6e736f6c652e6c6f679050602083016000808483855afa5050505050565b505050565b6000611e168473ffffffffffffffffffffffffffffffffffffffff16611fe7565b15611f7f578373ffffffffffffffffffffffffffffffffffffffff1663150b7a02611e3f611252565b8786866040518563ffffffff1660e01b8152600401611e619493929190613118565b602060405180830381600087803b158015611e7b57600080fd5b505af1925050508015611eac57506040513d601f19601f82011682018060405250810190611ea9919061250c565b60015b611f2f573d8060008114611edc576040519150601f19603f3d011682016040523d82523d6000602084013e611ee1565b606091505b50600081511415611f27576040517f08c379a0000000000000000000000000000000000000000000000000000000008152600401611f1e906131df565b60405180910390fd5b805181602001fd5b63150b7a0260e01b7bffffffffffffffffffffffffffffffffffffffffffffffffffffffff1916817bffffffffffffffffffffffffffffffffffffffffffffffffffffffff191614915050611f84565b600190505b949350505050565b611f968383611ffa565b611fa36000848484611df5565b611fe2576040517f08c379a0000000000000000000000000000000000000000000000000000000008152600401611fd9906131df565b60405180910390fd5b505050565b600080823b905060008111915050919050565b600073ffffffffffffffffffffffffffffffffffffffff168273ffffffffffffffffffffffffffffffffffffffff16141561206a576040517f08c379a0000000000000000000000000000000000000000000000000000000008152600401612061906132ff565b60405180910390fd5b612073816111e6565b156120b3576040517f08c379a00000000000000000000000000000000000000000000000000000000081526004016120aa906131ff565b60405180910390fd5b6120bf60008383611df0565b6001600360008473ffffffffffffffffffffffffffffffffffffffff1673ffffffffffffffffffffffffffffffffffffffff168152602001908152602001600020600082825461210f91906134b3565b92505081905550816002600083815260200190815260200160002060006101000a81548173ffffffffffffffffffffffffffffffffffffffff021916908373ffffffffffffffffffffffffffffffffffffffff160217905550808273ffffffffffffffffffffffffffffffffffffffff16600073ffffffffffffffffffffffffffffffffffffffff167fddf252ad1be2c89b69c2b068fc378daa952ba7f163c4a11628f55a4df523b3ef60405160405180910390a45050565b8280546121d49061367e565b90600052602060002090601f0160209004810192826121f6576000855561223d565b82601f1061220f57805160ff191683800117855561223d565b8280016001018555821561223d579182015b8281111561223c578251825591602001919060010190612221565b5b50905061224a919061224e565b5090565b5b8082111561226757600081600090555060010161224f565b5090565b600061227e6122798461342b565b6133fa565b90508281526020810184848401111561229657600080fd5b6122a184828561363c565b509392505050565b6000813590506122b8816137f7565b92915050565b6000813590506122cd8161380e565b92915050565b6000813590506122e281613825565b92915050565b6000815190506122f781613825565b92915050565b600082601f83011261230e57600080fd5b813561231e84826020860161226b565b91505092915050565b6000813590506123368161383c565b92915050565b60006020828403121561234e57600080fd5b600061235c848285016122a9565b91505092915050565b6000806040838503121561237857600080fd5b6000612386858286016122a9565b9250506020612397858286016122a9565b9150509250929050565b6000806000606084860312156123b657600080fd5b60006123c4868287016122a9565b93505060206123d5868287016122a9565b92505060406123e686828701612327565b9150509250925092565b6000806000806080858703121561240657600080fd5b6000612414878288016122a9565b9450506020612425878288016122a9565b935050604061243687828801612327565b925050606085013567ffffffffffffffff81111561245357600080fd5b61245f878288016122fd565b91505092959194509250565b6000806040838503121561247e57600080fd5b600061248c858286016122a9565b925050602061249d858286016122be565b9150509250929050565b600080604083850312156124ba57600080fd5b60006124c8858286016122a9565b92505060206124d985828601612327565b9150509250929050565b6000602082840312156124f557600080fd5b6000612503848285016122d3565b91505092915050565b60006020828403121561251e57600080fd5b600061252c848285016122e8565b91505092915050565b60006020828403121561254757600080fd5b600061255584828501612327565b91505092915050565b612567816135c8565b82525050565b612576816135da565b82525050565b600061258782613470565b6125918185613486565b93506125a181856020860161364b565b6125aa816137e6565b840191505092915050565b60006125c08261347b565b6125ca8185613497565b93506125da81856020860161364b565b6125e3816137e6565b840191505092915050565b60006125f98261347b565b61260381856134a8565b935061261381856020860161364b565b80840191505092915050565b6000815461262c8161367e565b61263681866134a8565b94506001821660008114612651576001811461266257612695565b60ff19831686528186019350612695565b61266b8561345b565b60005b8381101561268d5781548189015260018201915060208101905061266e565b838801955050505b50505092915050565b60006126ab603283613497565b91507f4552433732313a207472616e7366657220746f206e6f6e20455243373231526560008301527f63656976657220696d706c656d656e74657200000000000000000000000000006020830152604082019050919050565b6000612711601c83613497565b91507f4552433732313a20746f6b656e20616c7265616479206d696e746564000000006000830152602082019050919050565b6000612751600a836134a8565b91507f54484952445f574f5244000000000000000000000000000000000000000000006000830152600a82019050919050565b6000612791602483613497565b91507f4552433732313a207472616e7366657220746f20746865207a65726f2061646460008301527f72657373000000000000000000000000000000000000000000000000000000006020830152604082019050919050565b60006127f7601983613497565b91507f4552433732313a20617070726f766520746f2063616c6c6572000000000000006000830152602082019050919050565b60006128376063836134a8565b91507f222c20226465736372697074696f6e223a20224120686967686c79206163636c60008301527f61696d656420636f6c6c656374696f6e206f6620737175617265732e222c202260208301527f696d616765223a2022646174613a696d6167652f7376672b786d6c3b6261736560408301527f36342c00000000000000000000000000000000000000000000000000000000006060830152606382019050919050565b60006128e9600b836134a8565b91507f5345434f4e445f574f52440000000000000000000000000000000000000000006000830152600b82019050919050565b6000612929602c83613497565b91507f4552433732313a206f70657261746f7220717565727920666f72206e6f6e657860008301527f697374656e7420746f6b656e00000000000000000000000000000000000000006020830152604082019050919050565b600061298f600d836134a8565b91507f3c2f746578743e3c2f7376673e000000000000000000000000000000000000006000830152600d82019050919050565b60006129cf602a836134a8565b91507f68747470733a2f2f6e66742d707265766965772d736f6f74792e76657263656c60008301527f2e6170703f636f64653d000000000000000000000000000000000000000000006020830152602a82019050919050565b6000612a35603883613497565b91507f4552433732313a20617070726f76652063616c6c6572206973206e6f74206f7760008301527f6e6572206e6f7220617070726f76656420666f7220616c6c00000000000000006020830152604082019050919050565b6000612a9b602a83613497565b91507f4552433732313a2062616c616e636520717565727920666f7220746865207a6560008301527f726f2061646472657373000000000000000000000000000000000000000000006020830152604082019050919050565b6000612b01602983613497565b91507f4552433732313a206f776e657220717565727920666f72206e6f6e657869737460008301527f656e7420746f6b656e00000000000000000000000000000000000000000000006020830152604082019050919050565b6000612b67602e83613497565b91507f45524337323155524953746f726167653a2055524920736574206f66206e6f6e60008301527f6578697374656e7420746f6b656e0000000000000000000000000000000000006020830152604082019050919050565b6000612bcd6002836134a8565b91507f227d0000000000000000000000000000000000000000000000000000000000006000830152600282019050919050565b6000612c0d602083613497565b91507f4552433732313a206d696e7420746f20746865207a65726f20616464726573736000830152602082019050919050565b6000612c4d603183613497565b91507f45524337323155524953746f726167653a2055524920717565727920666f722060008301527f6e6f6e6578697374656e7420746f6b656e0000000000000000000000000000006020830152604082019050919050565b6000612cb3602c83613497565b91507f4552433732313a20617070726f76656420717565727920666f72206e6f6e657860008301527f697374656e7420746f6b656e00000000000000000000000000000000000000006020830152604082019050919050565b6000612d19602983613497565b91507f4552433732313a207472616e73666572206f6620746f6b656e2074686174206960008301527f73206e6f74206f776e00000000000000000000000000000000000000000000006020830152604082019050919050565b6000612d7f602f83613497565b91507f4552433732314d657461646174613a2055524920717565727920666f72206e6f60008301527f6e6578697374656e7420746f6b656e00000000000000000000000000000000006020830152604082019050919050565b6000612de5600a836134a8565b91507f7b226e616d65223a2022000000000000000000000000000000000000000000006000830152600a82019050919050565b6000612e25602183613497565b91507f4552433732313a20617070726f76616c20746f2063757272656e74206f776e6560008301527f72000000000000000000000000000000000000000000000000000000000000006020830152604082019050919050565b6000612e8b600a836134a8565b91507f46495253545f574f5244000000000000000000000000000000000000000000006000830152600a82019050919050565b6000612ecb601d836134a8565b91507f646174613a6170706c69636174696f6e2f6a736f6e3b6261736536342c0000006000830152601d82019050919050565b6000612f0b603183613497565b91507f4552433732313a207472616e736665722063616c6c6572206973206e6f74206f60008301527f776e6572206e6f7220617070726f7665640000000000000000000000000000006020830152604082019050919050565b612f6d81613632565b82525050565b6000612f7f82846125ee565b915081905092915050565b6000612f9682856125ee565b9150612fa282846125ee565b91508190509392505050565b6000612fba82866125ee565b9150612fc682856125ee565b9150612fd282846125ee565b9150819050949350505050565b6000612feb828561261f565b9150612ff782846125ee565b915061300282612982565b91508190509392505050565b600061301982612744565b915061302582846125ee565b915081905092915050565b600061303b826128dc565b915061304782846125ee565b915081905092915050565b600061305d826129c2565b915061306982846125ee565b915081905092915050565b600061307f82612dd8565b915061308b82856125ee565b91506130968261282a565b91506130a282846125ee565b91506130ad82612bc0565b91508190509392505050565b60006130c482612e7e565b91506130d082846125ee565b915081905092915050565b60006130e682612ebe565b91506130f282846125ee565b915081905092915050565b6000602082019050613112600083018461255e565b92915050565b600060808201905061312d600083018761255e565b61313a602083018661255e565b6131476040830185612f64565b8181036060830152613159818461257c565b905095945050505050565b6000602082019050613179600083018461256d565b92915050565b6000602082019050818103600083015261319981846125b5565b905092915050565b600060608201905081810360008301526131bb81866125b5565b90506131ca6020830185612f64565b6131d7604083018461255e565b949350505050565b600060208201905081810360008301526131f88161269e565b9050919050565b6000602082019050818103600083015261321881612704565b9050919050565b6000602082019050818103600083015261323881612784565b9050919050565b60006020820190508181036000830152613258816127ea565b9050919050565b600060208201905081810360008301526132788161291c565b9050919050565b6000602082019050818103600083015261329881612a28565b9050919050565b600060208201905081810360008301526132b881612a8e565b9050919050565b600060208201905081810360008301526132d881612af4565b9050919050565b600060208201905081810360008301526132f881612b5a565b9050919050565b6000602082019050818103600083015261331881612c00565b9050919050565b6000602082019050818103600083015261333881612c40565b9050919050565b6000602082019050818103600083015261335881612ca6565b9050919050565b6000602082019050818103600083015261337881612d0c565b9050919050565b6000602082019050818103600083015261339881612d72565b9050919050565b600060208201905081810360008301526133b881612e18565b9050919050565b600060208201905081810360008301526133d881612efe565b9050919050565b60006020820190506133f46000830184612f64565b92915050565b6000604051905081810181811067ffffffffffffffff82111715613421576134206137b7565b5b8060405250919050565b600067ffffffffffffffff821115613446576134456137b7565b5b601f19601f8301169050602081019050919050565b60008190508160005260206000209050919050565b600081519050919050565b600081519050919050565b600082825260208201905092915050565b600082825260208201905092915050565b600081905092915050565b60006134be82613632565b91506134c983613632565b9250827fffffffffffffffffffffffffffffffffffffffffffffffffffffffffffffffff038211156134fe576134fd61372a565b5b828201905092915050565b600061351482613632565b915061351f83613632565b92508261352f5761352e613759565b5b828204905092915050565b600061354582613632565b915061355083613632565b9250817fffffffffffffffffffffffffffffffffffffffffffffffffffffffffffffffff04831182151516156135895761358861372a565b5b828202905092915050565b600061359f82613632565b91506135aa83613632565b9250828210156135bd576135bc61372a565b5b828203905092915050565b60006135d382613612565b9050919050565b60008115159050919050565b60007fffffffff0000000000000000000000000000000000000000000000000000000082169050919050565b600073ffffffffffffffffffffffffffffffffffffffff82169050919050565b6000819050919050565b82818337600083830152505050565b60005b8381101561366957808201518184015260208101905061364e565b83811115613678576000848401525b50505050565b6000600282049050600182168061369657607f821691505b602082108114156136aa576136a9613788565b5b50919050565b60006136bb82613632565b91507fffffffffffffffffffffffffffffffffffffffffffffffffffffffffffffffff8214156136ee576136ed61372a565b5b600182019050919050565b600061370482613632565b915061370f83613632565b92508261371f5761371e613759565b5b828206905092915050565b7f4e487b7100000000000000000000000000000000000000000000000000000000600052601160045260246000fd5b7f4e487b7100000000000000000000000000000000000000000000000000000000600052601260045260246000fd5b7f4e487b7100000000000000000000000000000000000000000000000000000000600052602260045260246000fd5b7f4e487b7100000000000000000000000000000000000000000000000000000000600052604160045260246000fd5b6000601f19601f8301169050919050565b613800816135c8565b811461380b57600080fd5b50565b613817816135da565b811461382257600080fd5b50565b61382e816135e6565b811461383957600080fd5b50565b61384581613632565b811461385057600080fd5b5056fe416e204e465420772f20494420257320686173206265656e206d696e74656420746f2025734142434445464748494a4b4c4d4e4f505152535455565758595a6162636465666768696a6b6c6d6e6f707172737475767778797a303132333435363738392b2fa26469706673582212208a779c65c0b65fa93eeb738262e1288e3e3cfe204508617fb987c03b4fefc0f464736f6c634300080000333c73766720786d6c6e733d27687474703a2f2f7777772e77332e6f72672f323030302f73766727207072657365727665417370656374526174696f3d27784d696e594d696e206d656574272076696577426f783d273020302033353020333530273e3c7374796c653e2e62617365207b2066696c6c3a2077686974653b20666f6e742d66616d696c793a2073657269663b20666f6e742d73697a653a20323470783b207d3c2f7374796c653e3c726563742077696474683d273130302527206865696768743d2731303025272066696c6c3d27626c61636b27202f3e3c7465787420783d273530252720793d273530252720636c6173733d27626173652720646f6d696e616e742d626173656c696e653d276d6964646c652720746578742d616e63686f723d276d6964646c65273e",
  "linkReferences": {},
  "deployedLinkReferences": {}
}